:1000000000000420750300005D0300005F03000092
:1000100061030000630300006503000000000000AE
:100020000000000000000000000000006703000066
:1000300069030000000000006B0300006D03000076
:100040006F0300006F03000071160000011800002C
:10005000111800006F0300006F0300006F03000021
:100060006F0300006F0300006F0300006F030000C8
:100070006F0300006F0300006F0300006F030000B8
:100080006F0300006F0300006F0300006F030000A8
:100090006F0300006F0300006F0300006F03000098
:1000A0006F0300006F0300006F0300006F03000088
:1000B0006F0300006F03000000000000000000005C
:1000C0006F0300006F0300006F0300006F03000068
:1000D0006F0300006F0300006F0300006F03000058
:1000E0006F0300006F0300006F03000000000000BA
:1000F000000000006F030000000000006F0300001C
:1001000000000000000000000000000000000000EF
:1001100000000000000000000000000000000000DF
:1001200000000000000000000000000000000000CF
:1001300000000000000000000000000000000000BF
:1001400000000000000000000000000000000000AF
:10015000000000000000000000000000000000009F
:10016000000000000000000000000000000000008F
:10017000000000000000000000000000000000007F
:10018000000000000000000000000000000000006F
:10019000000000000000000000000000000000005F
:1001A000000000000000000000000000000000004F
:1001B000000000000000000000000000000000003F
:1001C000000000000000000000000000000000002F
:1001D000000000000000000000000000000000001F
:1001E000000000000000000000000000000000000F
:1001F00000000000000000000000000000000000FF
:10020000354936480A1A02D0072291438D463449AF
:1002100034480A1A06D00722914381F30988022242
:1002200082F3148830483149314A00F044F83148AB
:100230003149324A00F03FF831483249324A00F041
:100240003AF832483249334A00F035F832483349F7
:10025000334A00F030F833483349344A00F02BF881
:1002600033483449344A00F026F8344834490022EF
:1002700000F02CF833483449002200F027F83348C6
:100280003349091A082902DB002202604160314A21
:1002900090471F481F49884205D00268043003B4C4
:1002A000904703BCF7E700208646EC46002000217B
:1002B000294A9047FEE7884207D0521A05D00378B2
:1002C00001300B700131013AF9D17047884202D0F8
:1002D00002700130FAE770470000042000E00320BC
:1002E0000000042000000420C84600000000002098
:1002F00034000020D4030000D4030000204100009B
:10030000C846000000000020000000206C410000F2
:100310006C4100006C4100006C4100006C41000029
:100320006C4100006C4100006C410000C8460000B8
:10033000FC4600003400002034000020340000207F
:10034000800B0020800B0020840B0020840B0020F9
:10035000842B00209D030000B5280000FEE7FEE787
:10036000FEE7FEE7FEE7FEE7FEE7FEE7FEE7FEE765
:10037000704700BF1048804710484FF0070188437E
:1003800085460F4880470F48016841F470010160BD
:10039000BFF34F8FBFF36F8FFFF732BF0A480B4990
:1003A0000B4A884207D0521A05D0037801300B70EF
:1003B0000131013AF9D170477103000000000420B7
:1003C000A12B000088ED00E06C410000000000203F
:0403D0000000002009
:1003D40000487047780B0020F0B595B01D461646CE
:1003E40008460C4600F0E8FF1A9B0D93CDE908651A
:1003F40000252B46082205A920460A958DF82C5085
:100404000C9500F0F5FF079B0293069B03939DF860
:1004140014308DF8115003F00302012A1DD1BDF8E8
:100424001420059DC3F3C203C2F383168DF8103064
:10043400B20008230EA9204600F0DAFFC5F3952583
:1004440008AB0093324602AB0EA9284600F0B8FB75
:10045400204600F0B5FF15B0F0BD022AF8D1BDF872
:100464001650C3F3C203C5F389158DF8103008275D
:10047400082D2E4628BF08263B4632460EA92046A4
:1004840000F0B6FFAD1B08AB02AA31460EA83744F4
:1004940000F0FAFB002DEBD1DAE70000014B01225A
:1004A4001A707047750000207047000070B50E4D3B
:1004B40006460FCD88B06C460FC495E80F00002E99
:1004C40084E80F00094A0A484FF0060308BF0022D7
:1004D4006946009301F08CF808B100F02FFC054B3D
:1004E4001E7008B070BD00BF6C410000A104000084
:1004F400000000203400002007B5044B0093044A98
:100504004023FFF769FF03B05DF804FB1905000001
:100514003500002038B50D480D4C0E4D00232370D6
:100524000378EB5CD2B263B1043001F0D9FF08B1B7
:1005340000F004FC084B1A7812B12378002BFBD08E
:1005440038BD0C3001F09EFDF1E700BF0000002033
:1005540075000020280600203400002008B5084853
:10056400084A0378D35C3BB1043001F059FFBDE87D
:1005740008400020FFF79ABF0C3001F023FDF6E796
:1005840000000020280600200120FFF78FBF000094
:1005940008B5FFF7F9FF0448042100F07BFA034B88
:1005A40001225A7108BD00BF484100001400002018
:1005B400037813F0040216D003F00303012B03D0D5
:1005C400022B09D0012070470A6800880232C0F368
:1005D400831002440A60F5E70B684288023303EB98
:1005E40092130B60EEE71046704700002DE9F04FC0
:1005F400DFF824A10F4685B00446861C002015466A
:1006040000F0F2FBDAF800103960DAE90132134441
:1006140001335B1A0AF21C470AF583690AF214488B
:10062400B3421BD30020002D72D004F00F039B01B2
:1006340043F0050363F30F00DAF80020DAF808301A
:100644001340033332444AF823000020CAF8002040
:1006540000F0CCFB012005B0BDE8F08F0121384645
:1006640000F0E9FB484600F0FEFB404600F0FBFBCF
:10067400DAF80400DAF808B0009000EA0B0003305E
:100684000AEB80006946FFF793FF009B50BB0BEA1F
:1006940003020AEB820203F1020CD26801920133D5
:1006A40003EA0B0B0AEB8B0B02F00302012ADBF8C3
:1006B4000C10CDF800C023D0022A16D08346404641
:1006C40000F0D4FB10B1009BCAF8043059463846F8
:1006D40000F0B1FBDAE901231344DAF80020013316
:1006E4009B1A9DE70BEA0300C9E7BDF80630C3F384
:1006F400891303334FEA114B0CEB93030093DEE7AA
:10070400BDF80430C3F383134FEA114B6344F5E798
:10071400A40544F006008FE7480100200B4B0C4869
:10072400FF2210B59A600022C3F81824C3E90022FE
:10073400C3F8142483F8202400F0F7FD044610B90C
:10074400044800F05FFE204610BD00BF48010020B1
:1007540058410000C041000030B50A4C71B10A4A4A
:100764000A49121BD20800239A4201D1002030BD4D
:1007740031F82350854202D00133F5E7034654F89B
:100784003300F4E72041000048410000000000204D
:10079400094B013903EBC000032909D8DFE801F054
:1007A4000A020406042070470079704740797047B4
:1007B400002070470220704720410000034BD3E91A
:1007C4000030C31A58425841704700BF4801002006
:1007D4002DE9F04385B0FFF7F1FF0646002840F00D
:1007E400FA807E4CC4F81804BFF34F8F6368A56881
:1007F40000932B40033304EB83006946FFF7D8FED4
:10080400009B18B1D4F81824002A62D005EA030228
:10081400991C013304EB82022B4004EB8303D2685E
:10082400DB68029302F00303022B0192009163D16F
:10083400BDF806306A48C3F38917502FB84628BF5D
:100844004FF0500808F1080168F38F13C1F3090150
:10085400ADF8063000F081FD0646002800F0A680C1
:1008640000F0AAFD0023082201A9304600F0B6FDDD
:10087400009925EA01020132B8EB820F4FEA8203A4
:1008840033D95FFA88F863B32940DDB2A8EB0508D1
:1008940003315FFA88F9A846524D04EB810108231D
:1008A4004246304600F09AFD3DB108F10803DBB240
:1008B4004A462946304600F091FD009B033703EB7E
:1008C40097070097D4F81834002B4BD1D4F8105460
:1008D4005BE022689A428CD86260304605B0BDE87D
:1008E400F08340491D469946D9E72940033108233E
:1008F400424604EB8101DDE7012B57D1BDF80430FA
:100904003748C3F38311062928BF062161F38913ED
:10091400023101F00F018900ADF8043000F01DFD33
:100924000646002842D000F047FD0023082201A912
:10093400304600F053FD0027BDF80420C2F38312B3
:10094400BB00974203F10803BCD200994A1C29401A
:100954000331009204EB81010422304600F03EFD95
:100964000137E9E7304600F02BFDFFF727FF80F061
:100974000100C6B2B1E7EB685B7923B12B6831465D
:100984001B6828469847EB681D68002DF3D1304654
:1009940000F016FD284600F027FAD4F818340BB9F5
:1009A400009B6360002000F021FADEE7D4F81044D5
:1009B40054B90D4B0D480E49C01AC008000440F04C
:1009C400020000F063F8D0E7236820469B6898474C
:1009D400E3681C68ECE700267FE700BF48010020BD
:1009E4005841000054010020204100004041000013
:1009F400A94100002DE9F74F224E04460F469246C6
:100A040001A901221846D6F808909B46FFF7EEFD8F
:100A140020B3019D4FF00008AA1CD84508EB020141
:100A240026D11948002100F0E3F980F310000004F6
:100A340040EA1440E4006B1C04F0380403EA0903A0
:100A440005EA090544F0010406EB8303033544EA8F
:100A5400881444EA8724D86046F8254096F8203460
:100A64001BB1FFF7B5FE0028FBD103B0BDE8F08F42
:100A740009EA010106EB81015AF82830CB6008F13C
:100A84000108CAE7480100206405002000231A4633
:100A9400FFF7B0BF30B50F4CD4F810240346002044
:100AA400114631B9D96808714AB9C4F810340A60DA
:100AB40030BDC9680D79854206D00968F1E7D2686E
:100AC40014680C601360F3E701300A28E8D14FF092
:100AD400FF30EDE74801002038B5084B0125D3F875
:100AE400104483F8205404B938BDE3685D71236869
:100AF40020465B689847E3681C68F4E748010020D7
:100B040030B5C38885B004460D4633B1144A00920B
:100B14001449154A284600F003FA217A05291DD004
:100B2400637A4BB1A088FFF733FE104B104953F89A
:100B34002020284600F0F4F9227A0E4BA08853F8BE
:100B4400222003920021FFF707FE039A0A49034675
:100B5400284605B0BDE8304000F0E2B905B030BD2C
:100B6400EC410000D4410000CC4100005842000098
:100B7400F14100007C420000F441000007B5034647
:100B84000846197A052911D05B7A2BB1094A0A491A
:100B9400019000F0C5F901980849019000F0C0F9EE
:100BA400019803B05DF804EB00F0AFB9002AF8D067
:100BB400F2E700BFEC410000F1410000F742000001
:100BC4002DE9F04385B01F460C9D002395F80C9049
:100BD4002B7306460C46904629463846FFF790FF8D
:100BE400B8F1060F09D8DFE808F00412181F2833FB
:100BF40040003146284600F093F900222946384641
:100C0400FFF7BCFF85F80C9005B0BDE8F0832268BF
:100C14003146284600F084F9EFE7D4E90023314651
:100C2400284600F07DF9E8E7A36800933146D4E94B
:100C34000023284600F074F9DFE7E3680193A36812
:100C440000933146D4E90023284600F069F9D4E73B
:100C540023690293E3680193A36800933146D4E9BE
:100C64000023284600F05CF9C7E76369039323690E
:100C74000293E3680193A36800933146D4E9002307
:100C8400284600F04DF9B8E708292DE9F74F8046CA
:100C94000E4617461C4639D8002593F80C901D7350
:100CA40019461046FFF72CFFDFF880A0DFF880B06C
:100CB400AE422ED918F805205946204600F030F9E6
:100CC4000135082DF4D11849DFF868A0DFF868B0C1
:100CD400204600F025F90025AE421FD918F805205A
:100CE4000192104602F0C8F90028019A594608BF3B
:100CF4002E22204600F014F90135082DECD10122F2
:100D040021463846FFF73AFF84F80C9003B0BDE85B
:100D1400F08F5146204600F003F9D1E751462046B2
:100D240000F0FEF8E8E700BF0842000004420000BB
:100D3400FE410000064200000A4200001FB50021E7
:100D4400039001AA44F20100CDE9011100F004F876
:100D540005B05DF804FB000038B572B6FFF7BCFEC1
:100D6400FFF736FD0028FBD1104B114C114D1249F1
:100D7400E41AE408240444F00100FFF787FED5F8E0
:100D8400F030DB0700D500BE0C4944F00200FFF749
:100D94007DFEBFF34F8FEA68094B02F4E062134310
:100DA400EB60BFF34F8F00BFFDE700BF20410000A1
:100DB4004041000000ED00E0904200009C42000031
:100DC4000400FA0572B6024A1368013313607047CF
:100DD40004060020034A1368013B136003B962B69A
:100DE400704700BF04060020FFF7ECBFFFF7F2BF17
:100DF40010B5034653E8000F0A4643E8002494F074
:100E0400000FF7D110BD10B5034653E8002F42EA96
:100E1400010043E8000494F0000FF6D110BD10B5B2
:100E2400034653E8000F00EA010243E8002494F06B
:100E3400000FF6D110BD10B5034653E8002F02EBA6
:100E4400010043E8000494F0000FF6D110BD10B582
:100E5400034653E8002FA2EB010043E8000494F09A
:100E6400000FF6D110BD0121FFF7CDBF0021FFF720
:100E7400D6BF10B590B1D0E9012301689B1ADBB24B
:100E84000A60013BDBB2FF2B026802D10020107123
:100E940010BD11684C1C14600B70F2E70E20F7E7CC
:100EA40038B504460020FFF79FFF22686368116885
:100EB400994213D9481E106011F8013CE568218A53
:100EC40001FB0355A36811791B1ADBB2994200D2C6
:100ED40013710020FFF78AFF284638BD0025F8E784
:100EE40038B5054600200C46FFF77EFF2A681368D4
:100EF400591C1160E968641A298AB4FBF1F41C7066
:100F0400BDE838400020FFF771BF826810B5044681
:100F14002AB143690168006998470023A36010BDA2
:100F24000EB403B5039921B104AB01AA019300F0F7
:100F34006FF802B05DF804EB03B07047826830B418
:100F44000468551C8560A154D0E901329A4202D349
:100F540030BCFFF7DABF30BC704700002DE9F84F12
:100F64009846DDE90A43154682460F460A464FF085
:100F74000109AA420FD2C14538BFC14613F0010B83
:100F840001D16CB900240126B8F1010F1BD908F175
:100F9400FF386E43F8E709F10109B2FBF5F2E8E71F
:100FA4009B070ED5B8F1000F0CBF30262026A145B3
:100FB400E9D2013C31465046FFF7C0FF002CF6D180
:100FC400E0E72026F3E7B7FBF6F39D42E1D9DFF82B
:100FD4003C80B7FBF6F3504618F8031006FB137772
:100FE400FFF7ACFF3346AB42B6FBF5F6F1D2BBF1EB
:100FF400000F02D00CB1A14501D3BDE8F88F202128
:101004005046013CFFF79AFFF4E700BFA9420000F5
:101014002DE9F74F054617468846002900F03E8122
:1010240018F8011B49B92B7B002B00F037812846A7
:1010340003B0BDE8F04FFFF768BF252940F0B78043
:10104400002698F800302D2B424608F1010823D0E1
:10105400302B24D02B2B25D000242A2B02F1010184
:1010640023D13B681A1D1B683A601C440A46137856
:101074002E2B26D101324FF0000A104610F8011B26
:10108400A1F1300CBCF1090F1DD80A2303FB0A138C
:10109400A3F1300A0246F0E746F00106D1E746F034
:1010A4000206CEE746F00406CBE711F8013CA3F1B3
:1010B40030000928DBD80A2202FB0434303C0A46FB
:1010C400CBE74FF0000A12F8011B01F0FB0068287F
:1010D4009046F8D0782909D86F290CD8632962D0B2
:1010E40022D8252963D0582900F0888098F8003048
:1010F400002B95D197E770390829F7D801A353F845
:1011040021F000BF7B120000F1100000F11000007C
:1011140011120000F1100000EF110000F1100000A6
:10112400F110000001120000642901D06929DDD109
:101134003A68D2F80090111D89EAE9723960A2EB8D
:10114400E9724FF0010B092A35DCD34538BFD34689
:101154002CB1B9F1000F01DB720700D5013CB307D4
:1011640002D5BAF1000F03D0F00701D44CBB002420
:10117400B9F1000F2DDAC9F100092D212846FFF736
:10118400DDFE06F00302022A04D1BAF1000F01D1F8
:101194001CBB0024CDE9004653460A224946284692
:1011A400FFF7DCFEA2E73B681A1D19783A6028466F
:1011B400FFF7C4FE9AE70A230BF1010BB2FBF3F22B
:1011C400C1E7A345D4D220212846013CFFF7B6FE4F
:1011D400CCE77107D5D52B21D0E7A345DAD230214E
:1011E4002846013CFFF7AAFED2E73968CDE900465C
:1011F4000A1D3A6053460A220968D0E739680A1D75
:101204003A60CDE9004653461022F5E73B681A1DC3
:101214003A6016F00106D3F8009024D1B9F1000F1A
:1012240003D0484601F0D5FF0646B4421DD809F163
:10123400FF3919F8011F00293FF458AF2846FFF77A
:101244007DFEF6E728460136FFF778FE19F806100A
:101254000029F7D1A642BFF449AF20212846013C1A
:10126400FFF76CFEF6E70026F0E720212846013C54
:10127400FFF764FED9E73B681A1D3A60302128461F
:101284001C68FFF75BFE78212846FFF757FE002213
:101294000823CDE900322146102280E703B0BDE8DF
:1012A400F08F00BF2DE9F84FB0F806A04579D2F8C9
:1012B40000B09DF828900AFB05F5043D88460BEB29
:1012C4000301A94203F1040488BFA5EB030BB4FB9B
:1012D400FAF607460AFB1644C2F800B04EB9AAEB68
:1012E40004055D4528BF5D46BBF1000F04D1BDE890
:1012F400F88F3F68013EF1E7043408EB06003C44F4
:101304002A46B9F1000F0DD02146ABEB050B01F0D5
:10131400E2FEDA452E443F6855464FF0000428BFEC
:101324005D46E1E701462046EFE7FFF7A2BDF8B5C9
:1013340046790146721E0546002393422D6803D365
:101344000024A64202D8F8BD0133F6E70F68284608
:10135400FFF7C6FD01343946F3E72DE9F843068A61
:10136400CD1C0746FFF79CFD043E35440446B5FBFF
:10137400F6F5F0B14FF48073EDB28380C680013D81
:10138400076081464FF00008A84512D23846FFF79F
:1013940087FD064648B163790133637108F101089A
:1013A400C9F8000007608146EEE72046FFF7BFFF5B
:1013B40034462046BDE8F88301210430FFF73BBDE5
:1013C40010B5012104460430FFF741FDC0B220B935
:1013D4002046BDE81040FFF7AABF10BD1FB5039219
:1013E4000022009203AAFFF75DFF05B05DF804FB3D
:1013F4001FB503920122009203AAFFF753FF05B021
:101404005DF804FB836800225A60C3E904229A60F1
:10141400DA601A60704700001FB503788DF8003059
:101424008388ADF8043083688DF80630C3688DF87E
:101434000730036902934369054A0393054B6846E1
:1014440053F8213052F82110984705B05DF804FB99
:101454000806002010060020024B4FF4807043F071
:1014640001031847C04200001F2886BF054A00F048
:101474001F004FF0A042012303FA00F0C2F8080550
:10148400704700BF000300502DE9F047154690F85F
:101494000080394A42F82850384A42F828304B7BB9
:1014A40006460C46A3B30868DFF8D8904FF0A04175
:1014B40000F5E07340F20C6241F82320636803F501
:1014C400E073002741F82320FFF7CEFF6068FFF7A1
:1014D400CBFF236803F5E07340F20D6241F823204B
:1014E400636803F5E0734FF0010A41F82320FFF726
:1014F400B3FF63681F2B8ABF4A464FF0A04203F034
:101504001F03D2F8102522FA03F3DB070BD507BB20
:10151400002D1B4A434608BF2A462146301DBDE81C
:10152400F04700F07BB923681F2B86BF03F01F032D
:101534004A464FF0A0420AFA03F3C2F80C35FFF70B
:101544008BFF01372068FFF78FFFFFF785FF092F17
:10155400CFD163681F2B86BF0A4903F01F034FF0E6
:10156400A041012202FA03F3C1F80C35FFF774FF1E
:101574006068FFF779FFCBE710060020080600201B
:101584001D140000000300501FB503788DF80030CF
:1015940043680193037A8DF80830C368054A0393BE
:1015A400054B684653F8213052F82110984705B08E
:1015B4005DF804FB18060020200600201FB5037800
:1015C4008DF800304368019383688DF80830C36850
:1015D400054A0393054B684653F8213052F821100D
:1015E400984705B05DF804FB18060020200600208B
:1015F400F0B5194B90F800C0DFF86CE043F82C20EC
:10160400164B16460A6943F82C204B7F0EF80C3013
:101614000C4607460FCC89B06D460FC594E80F0001
:1016240085E80F003B78CDF810C01EF803304BB1AD
:10163400002E0B4A694608BF3246381D00F00EFEE4
:1016440009B0F0BD002E074A694608BF324607F1CB
:101654000C0000F0DDFBF3E7200600201806002054
:101664008D150000C115000028060020014B1B68E1
:10167400184700BF2C06002038B50B4B98420C4687
:1016840001D0002038BD0020FFF7AEFB074B1D79C9
:1016940015B901221C601A710020FFF7A7FB002D69
:1016A400EFD01120EEE700BF002000402C06002000
:1016B400034B984201BF034B00221A601A71704712
:1016C400002000402C0600200023435082B04358E1
:1016D4000193019B02B07047F0B5D0F8243187B074
:1016E40004460D469BB14FF49271FFF7EDFFD0F81D
:1016F400043163B9AB68C0F808330223AB60AB684C
:10170400C0F8043301230362436107B0F0BDD4F889
:101714000431002B34D04FF48271204605F10C07BC
:10172400FFF7D2FF0FCF01AE0FC63B68336095F8C9
:101734002E3073B12B7B012B0CBFD4F83C25D4F88D
:101744004C250292022B0CBFD4F83C35D4F84C350E
:1017540003934FF4B0712046FFF7B6FF4FF4AE7118
:10176400FFF7B2FF95F8303013B195F82E30CBB1B6
:101774000023C4F80032AB601F4BC4F8083311E0F7
:101784004FF4A4712046FFF79FFF2B7BEBB905F1C3
:101794000C070FCF01AE0FC63B68336095F83030AD
:1017A400002BE6D0D4F8C434C4F8C4349A071ED548
:1017B40001238DF8003095F830300BB985F82F30BF
:1017C400D5E90031684698479FE74FF40073C4F8A1
:1017D400003240F20223AB6003F1CE73C4F8083345
:1017E400AB68C4F804330123A36023628DE713F0CC
:1017F400040318BF0223DCE702029C0101490248EA
:10180400FFF76ABF340600200030004002494FF061
:101814004020FFF761BF00BF680600202DE9F84FA4
:101824000679404D4FF0340A0AFB06FA05EB0A0428
:101834009B4694F82D3080460F469146002B6DD17F
:10184400394B006853F82610FFF716FF002867D1BC
:101854003A687B7B84F832301F2A8ABF02F01F0368
:1018640013463249A06098BF4FF0A04103F5E073DE
:1018740040F20C6C84F82F0041F823C07B68C4F854
:1018840004B01F2B8CBF03F01F01194684F83000ED
:1018940001F5E07188BF254C45F80A9098BF4FF0D8
:1018A400A04444F821C0D8F80040C4F80825C4F87E
:1018B4000C35BB68C4F82435B9F1000F26D044F3C5
:1018C4000733002B3A7BB4BF194903F16041C4F3D9
:1018D40007344FEA5313B8BF04F00F074FEA42121C
:1018E400A8BF01F561414FEA8303D2B203F160431B
:1018F400B4BFCA5581F8002303F5614304F01F0403
:10190400012202FA04F4C3F880411C60342303FB6F
:101914000655012385F82D30BDE8F88F0820FBE734
:101924001120F9E734060020D042000000030050E3
:1019340014ED00E0036802790621C3F80015044B96
:10194400342101FB0233022283F82D20704700BFAB
:10195400340600202DE9F843CB6803F06043B3F16B
:10196400005F0D46904603D010263046BDE8F8834C
:1019740090F80490924F0468924BC4F808333426CC
:1019840006FB097696F82F3023B1B368C4F8043304
:101994001126EAE712F0140F0CBF0123002386F886
:1019A4002F308E46BEE80F0006F10C0CACE80F0099
:1019B400DEF80030CCF80030C8F3001386F830307D
:1019C4006B78C4F888354FF482712046FFF77CFEAB
:1019D4004FF49271FFF778FE18F0010318BF01234A
:1019E400C4F8503518F0020318BF0123C4F8403579
:1019F4002B78032B00F2C280DFE803F084AA68028C
:101A04002B6903F06043B3F1005FADD14FF48073F1
:101A1400C4F80032EA686B68C4F844254FF4A8712E
:101A2400C4F84835FFF750FE4FF4B071FFF74CFE91
:101A34004FF4A471FFF748FE01232362A360D4F896
:101A44005031002BFBD04FF4A8712046FFF73CFE29
:101A5400AB682A69C4F84425C4F848355A4A342383
:101A640003FB09739A604FF482710823002618F06F
:101A7400080F04D12A78032A1CBF0122E250342320
:101A840003FB09F3FA18FB58002B7CD101222144F3
:101A94000B68002B00F084803422D4F8C434C4F8DA
:101AA400C43402FB0977002287F82F20002B3FF46F
:101AB4005CAF13F0020F48F2012608BF032613F0AF
:101AC400040F48F2022318BF1E464EE76B68EA680B
:101AD400C4F84425C4F848352B6903F06042B2F1D8
:101AE400005F7FF441AFAA68C4F834354FF48453DF
:101AF400C4F83825C4F80032342303FB097340F2D8
:101B04000222AFE76B68EA68C4F8442518F0200F96
:101B1400C4F848354FF034030ED04FF4807203FB01
:101B24000973C4F80022284A9A604FF4A471FFF79D
:101B3400CBFD0123236298E74FF4007203FB097382
:101B4400C4F8002240F202229A604FF48271F0E756
:101B54006B68EA68C4F83425C4F838354FF4805308
:101B6400C4F80032342303FB097340F202229A6062
:101B7400012323624FF48271002377E74FF48271CB
:101B84000823072673E718F0040F1CBF4FF40073F3
:101B94009360342303FB0977BB68C4F80433E4E699
:101BA400D4F82431002B3FF473AF4FF492712046E4
:101BB400FFF78AFD22624FF48271626167E700BF1A
:101BC4003406002002029C0100020400F0B587B034
:101BD40004460F4615460021142201A81E4601F0B2
:101BE400A3FA9DF830308DF80570002B14BF202225
:101BF400002201A9204602960495FFF7ABFE07B028
:101C0400F0BDF0B587B004460F46154600211422F6
:101C140001A81E4601F088FA0123002201A92046EA
:101C24008DF804308DF8057002960495FFF792FE46
:101C340007B0F0BD0023435082B043580193019B89
:101C440002B070470A4610B54FF48E71FFF7F2FFE9
:101C5400136A9168C95C136A01331362C0F81C15D6
:101C640010BD8B690A4610B54FF4847123B9FFF790
:101C7400E1FFD0F8183510BDFFF7DCFF536AD168D7
:101C8400D0F81805C854536A01335362F3E70000CF
:101C94001FB501238DF80030044BCDE90110D3E9C1
:101CA40000126846904705B05DF804FB9C060020CE
:101CB40030B54D4DD5F804339A0585B051D5D5F8D6
:101CC4002431002B4DD04FF492712846FFF7B2FF18
:101CD4004FF40173C5F80833444B93F829200AB92B
:101CE40001226A60404902228DF80020D1F8802444
:101CF400C1F8802403929A690292DA680192002260
:101D0400C3E906226846D3E9001290473648D0F862
:101D14001C315BB1354A116A536999424DD292F82C
:101D24002830002B49D11146FFF78CFF2E48D0F8FC
:101D34004431002B55D04FF4A271FFF77BFF2B4B9E
:101D440093F829200AB1012202609A69002A48D036
:101D5400586AD96800229A6105B0BDE83040FFF79F
:101D640097BFD5F804335B07D0D5D5F80831002BDD
:101D7400CCD01E4C1C482146FFF773FF636AA2694E
:101D84009A42C3D1E369E1684BB1A3612369E3607B
:101D94000023606AE3616362FFF77AFFB6E794F8B1
:101DA40029300BB901236B600F4B4FF40172C3F858
:101DB40008230023606AA361EEE74FF48E710A489A
:101DC400FFF738FF51690029B0D0002302919168D0
:101DD4008DF80030019153616846D2E900139847A9
:101DE400A4E705B030BD00BF002000409C060020E1
:101DF4001F2886BF00F01F00044B4FF0A04300F5DE
:101E0400E070022243F82020704700BF0003005016
:101E14002DE9F843664D90F804802C2303FB085306
:101E2400064693F82A300C469146002B40F0BB80BE
:101E340060490068FFF720FC0746002840F0B580A1
:101E44002268531C10D01F2A87BF5B4902F01F036E
:101E540013464FF0A0410120984003F5E073C1F808
:101E64000805032041F823006168481C0DD01F2990
:101E74008BBF01F01F030B464F484FF0A04003F502
:101E8400E0734FF0000C40F823C03068A369C0F839
:101E9400243594F814C0637DBCF1010F4CEA0303AC
:101EA400C0F86C35C0F81415C0F80C252BD1A36804
:101EB400591C0DD01F2B8BBF03F01F021A463E493D
:101EC4004FF0A04102F5E0724FF0000C41F822C03F
:101ED400E1684A1C13D01F2987BF374A01F01F0C41
:101EE4008C464FF0A0424FF0010E0EFA0CFE0CF59A
:101EF400E07CC2F808E54FF0030E42F82CE0C0F88D
:101F04000815C0F810352C2202FB08F2AB18C3F8F0
:101F140004902369AB50B9F1000F31D04FF48E71A6
:101F2400227FFFF787FE30684FF4A271FFF782FE2D
:101F340033682249C3F80413190B43F30733002B06
:101F4400A8BF03F160404FEA5313BCBF01F00F0474
:101F54001B484FEA4212A8BF00F561404FEA8303D1
:101F6400D2B203F16043B4BF025580F8002303F5F5
:101F7400614301F01F0101228A40C3F880211A60E5
:101F840033680422C3F800252C2303FB08530022E2
:101F9400C3E9062283F829205A61012283F82A2002
:101FA4003846BDE8F8830827FAE71127F8E700BFA9
:101FB4009C060020B51C00000003005080000200B5
:101FC40014ED00E02DE9F04103680579244C00226A
:101FD400C3F800252C2202FB0542014652686AB16F
:101FE400204AC3F8082343F30732C3F304365209E3
:101FF4000120B04020321C4E46F82200D3F80C05D4
:10200400D3F81485D3F80865D3F810754FF0FF3270
:102014009042C3F81425C3F80C25C3F80825C3F867
:10202400102501D0FFF7E4FEB8F1FF3F02D040468F
:10203400FFF7DEFE7A1C02D03846FFF7D9FE731C88
:1020440002D03046FFF7D4FE0868FFF731FB2C239B
:1020540003FB0544002384F82A306360BDE8F08163
:102064009C0600208402020000E100E00279044B97
:102074002C2101FB02335869003818BF0120704736
:102084009C0600202DE9F84F064689469246FFF744
:10209400EDFF044600283DD196F804801F4F2C25FF
:1020A40008FB057B4FF48E71CBF82000CBF814A00D
:1020B4008BF82800CBF808903068FFF7BBFD306838
:1020C400012383605946FFF7BDFDDBF804305D460C
:1020D40013BB30682A6A6B699A4211D33368D3F808
:1020E4001C21002AFBD00122DA6000202C2303FBF0
:1020F400087700237B61BDE8F88F95F828303BB959
:10210400D0F81C31002BF8D05946FFF79BFDE1E7CE
:102114000F20EBE71120EEE72046ECE79C060020B9
:102124000023435082B043580193019B02B070478F
:102134001FB501238DF80030054B8DF8080001917F
:102144006846D3E90012904705B05DF804FB00BF70
:10215400C80600207FB5374AD2F82461002E47D044
:1021640010464FF49271FFF7DBFF02238DF8003025
:10217400D2F88034C2F880340393D2F83C358DF819
:1021840008302D4BDA6801920022C3E90622684622
:10219400D3E9001290472748D0F844316BB14FF48B
:1021A400A271FFF7BDFF244B9A6932B100229A61F4
:1021B400D0F83C05D968FFF7BBFF1E48D0F82031A2
:1021C400A3B14FF49071FFF7ABFF1B4B5A696AB18F
:1021D400D0F84C158DF80810002299688DF800206D
:1021E40001915A616846D3E90012904704B070BD6A
:1021F400D2F81031002BCED04FF488711046FFF77F
:102204008FFF0D4BD2F83C0599698842C3D1DC6934
:10221400D96864B1D2F8005225F02005C2F8005202
:102224001A699C61DA60DE61FFF782FFB3E79C61A3
:10223400FAE700BF00200040C80600201F2886BF20
:1022440000F01F00044B4FF0A04300F5E0700222A1
:1022540043F82020704700BF000300502DE9F843E5
:102264006A4E90F80480242303FB0863054693F820
:1022740020300C469146002B40F0C380644900682E
:10228400FFF7FAF90746002840F0BD8021684B1C8F
:1022940010D01F2987BF5F4A01F01F030B464FF080
:1022A400A0420120984003F5E073C2F8080503201A
:1022B40042F823006268501C0DD01F2A8BBF02F025
:1022C4001F03134653484FF0A04003F5E0734FF04B
:1022D400000C40F823C02868A369C0F8243594F89A
:1022E40014C0637DBCF1010F4CEA0303C0F86C35E4
:1022F400C0F80C15C0F814252BD1A368591C0DD0B7
:102304001F2B8BBF03F01F021A4642494FF0A04116
:1023140002F5E0724FF0000C41F822C0E1684A1C5B
:1023240013D01F2987BF3B4A01F01F0C8C464FF086
:10233400A0424FF0010E0EFA0CFE0CF5E07CC2F840
:1023440008E54FF0030E42F82CE0C0F80815C0F879
:102354001035242202FB08F2B318C3F80490236951
:10236400B350B9F1000F3BD04FF48871227FFFF7CF
:10237400D7FE28684FF49071FFF7D2FE28684FF417
:102384009271FFF7CDFE28684FF4A271FFF7C8FEE3
:102394002B682149C3F80413190B43F30733002BAB
:1023A400A8BF03F160404FEA5313BCBF01F00F0410
:1023B4001A484FEA4212A8BF00F561404FEA83036E
:1023C400D2B203F16043B4BF025580F8002303F591
:1023D400614301F01F0101228A40C3F880211A6081
:1023E4002B680822C3F80025242303FB0866002376
:1023F400C6E906337361012386F820303846BDE808
:10240400F8830827FAE71127F8E700BFC806002079
:1024140059210000000300501003020014ED00E0F5
:102424002DE9F04103680579244C0022C3F8002506
:10243400242202FB0542014652686AB1204AC3F8CD
:10244400082343F30732C3F3043652090120B04092
:1024540020321C4E46F82200D3F80C05D3F814851C
:10246400D3F80865D3F810754FF0FF329042C3F8E3
:102474000C25C3F81425C3F80825C3F8102501D08A
:10248400FFF7DCFEB8F1FF3F02D04046FFF7D6FE6F
:102494007A1C02D03846FFF7D1FE731C02D03046B6
:1024A400FFF7CCFE0868FFF703F9242303FB054478
:1024B400002384F820306360BDE8F081C806002062
:1024C4001003020000E100E00279044B242101FB27
:1024D40002335869003818BF01207047C80600202D
:1024E4002DE9F84301F06043B3F1005F06468846E6
:1024F400914634D1FFF7E8FF044690BB32791B4F75
:102504003068242505FB02754FF49071C5F81490CA
:10251400C5F80880FFF704FE30684FF4AC71FFF78C
:10252400FFFD33686969A868C3F84405C3F8481512
:10253400012199606968B1B9D3F82011D3F8580121
:1025440049B90028F8D00F20242303FB0277002385
:102554007B61BDE8F883002818BF0F20F4E7102042
:10256400F7E71120F5E72046F3E700BFC80600208F
:1025740038B5054D044645F001054FF47A40A847A7
:10258400013CFAD138BD00BF504300001FB50B22F7
:102594000C23CDE900234FF0CC710223CDE90213C3
:1025A400002307481A466946FEF76EFF08B1FEF796
:1025B400C5FB0448FFF7BEF905B05DF804FB00BF96
:1025C400584300005C4300001FB50B888DF80D30A4
:1025D4001B0A8DF80E3000238DF80C00009303AA1B
:1025E400032336210248FFF7F1FA05B05DF804FB36
:1025F4005C43000030B50B4D85B001230C468DF8CB
:102604000C00009303AA36212846FFF7DFFA0223C1
:1026140003AA36212846FFF7F4FABDF80C302380CC
:1026240005B030BD5C4300002DE9F043DFF878804D
:1026340085B006460F4603253B888DF80D300024EF
:102644001B0A03AA36218DF80E300094032340465A
:102654004FF001098DF80C60FFF7B8FA0A20FFF774
:1026640087FF4B4603AA3621CDF8009040468DF8EB
:102674000C60FFF7ABFA022303AA362140468DF81B
:102684000C408DF80D40FFF7BCFA3A88BDF80C30C9
:102694009A4207D0013D15F0FF05CDD1484605B05B
:1026A400BDE8F0832046FAE75C43000010B5044C13
:1026B40000202146FFF79EFF2088C0F3400010BD94
:1026C400F406002010B5074C00202146FFF792FFC6
:1026D400238823F00203238021460020BDE8104014
:1026E400FFF7A2BFF406002038B50A490A4C3D2082
:1026F400FFF780FF04F17A05B4F87A30DB0700D4E1
:1027040038BD0A20FFF734FF29463D20FFF772FF4A
:10271400F2E700BF6E070020F406002037B52F4D06
:102724002F4C4FF4FA632B804FF4A0736B804FF45B
:102734000443AB8004F5BA714AF26153BA20EB80CA
:10274400FFF758FF90230DF106016020ADF8063025
:10275400FFF73AFF00230DF10601BA20ADF8063069
:10276400FFF732FF0DF106016020FFF72DFF2B88E4
:1027740023866B88A387EB88A4F8743004F13001B6
:10278400AB88A4F8B6311820FFF71EFF04F13C0112
:102794001E20FFF719FF04F174013A20FFF714FF1C
:1027A40004F5DB71DB20FFF70FFF04F5DB71DB20A1
:1027B400FFF720FF04F5DB75B4F9B631002B05DB18
:1027C4000849BA20FFF700FF03B030BD0A20FFF725
:1027D400CFFE2946DB20FFF70DFFEDE7EC060020D6
:1027E400F40600206808002010B50C4C2DED028B77
:1027F40004F10A010520B0EE408AFFF7FBFE63896D
:1028040007EE903AF8EE677AB1EE040A27EE800AF2
:1028140080EE080ABDEC028B10BD00BFF406002058
:1028240010B5064C062004F10C01FFF7E3FEA38962
:1028340000EE103ABBEECC0A10BD00BFF406002037
:1028440010B5084C112004F12201FFF7D3FE638C6C
:102854009FED050A07EE903AF8EE677A27EE800AB4
:1028640010BD00BFF40600200000B44010B5084CB1
:10287400092004F11201FFF7BDFE638A9FED050AEA
:1028840007EE903AF8EE677A27EE800A10BD00BF93
:10289400F40600200000A03D10B5044C082004F10B
:1028A4001001FFF7A7FE94F9110010BDF4060020F3
:1028B400002170B50846FDF731FF08B1FEF73EFA76
:1028C400FDF766FE3348344B3449C01AC00800048F
:1028D40040F00300FEF7DAF8FDF77AFF0028FBD199
:1028E4002F4C304E304DFFF751FEFFF7DFFEFFF760
:1028F400FBFEFFF713FF04F13A011D20FFF77AFEF8
:1029040021464AF2102321F83A3F1D20FFF75CFECE
:1029140004F13A011D20FFF76DFEFFF7D3FE234CAF
:10292400FFF7A4FF10EE100A00F016FA02460B4659
:10293400304600F009F9B1EE040AFFF755FF10EE36
:10294400100A00F009FA02460B46284600F0FCF88B
:10295400FFF766FF10EE100A00F0FEF902460B4680
:10296400204600F0F1F8FFF76BFF10EE100A00F0BC
:10297400F3F902460B460E4800F0E6F8FFF78CFF29
:1029840001460C4800F0E0F84FF47A70FFF7F0FDD0
:10299400C6E700BF4041000020410000E3420000C0
:1029A400F4060020FA4200000A4300001943000024
:1029B40028430000344300000369C26893429CBF6B
:1029C40080681B18013B981A70472DE9F843D0E939
:1029D40002940546A9EB04084068904520440F463C
:1029E400144404D900F077FBEC60BDE8F883424658
:1029F400A4EB090400F06FFB6868224607EB0801AA
:102A0400F0E72DE9F843C5680646894617464FF0B6
:102A140000083469B3687068A54228BFE418013C13
:102A2400621B5C1BBC4228BF3C46944228BF144630
:102A340049462844224600F04EFBB3682544AB4285
:102A440008BF00253F1BA044A144F560E1D14046E6
:102A5400BDE8F88310B5114C114AA2610223C4E900
:102A64000433104BE361A2644FF400730E4A0F4920
:102A74002362E26400231022E01DA3626362E36226
:102A8400A3656365E365226500F081FB0849204680
:102A940000F07DFB2023A37110BD00BFF4080020CB
:102AA400684300007C0900206C0900207143000089
:102AB4007543000070B5164B182400FB04451D44F3
:102AC40004FB00331646DC6A012C0ED0022C18D00D
:102AD400E4B92846FFF770FF864204D832462846F8
:102AE400FFF773FF3446204670BD2846FFF764FFA6
:102AF4008642344628BF044622462846FFF765FF2F
:102B0400F1E72846BDE87040FFF77BBF0024EAE701
:102B1400F408002070B50B4B1B7804460D4616468E
:102B24000BB9FFF797FF0020FEF75EF932462946FE
:102B34002046FFF7BFFF04460020FEF757F9204662
:102B440070BD00BFF40800200FB410B5A2B024ABD0
:102B5400802153F8042B019302A800F0AEFA8028D8
:102B640004460ADD802202A90020FFF7D3FF204695
:102B740022B0BDE8104004B070470028F7DD0246DB
:102B8400F1E74FF08053D3F83021082A03BFD3F87C
:102B94003401B0FA80F040090020704708B54FF0C6
:102BA40080430022C3F80C21C3F81021C3F8382550
:102BB4004FF0805203F54043D2F80414C3F82015B3
:102BC400D2F80814C3F82415D2F80C14C3F8281545
:102BD400D2F81014C3F82C15D2F81414C3F8301515
:102BE400D2F81814C3F83415D2F81C14C3F84015DD
:102BF400D2F82014C3F84415D2F82414C3F84815A5
:102C0400D2F82814C3F84C15D2F82C14C3F8501574
:102C1400D2F83014C3F85415D2F83414C3F860153C
:102C2400D2F83814C3F86415D2F83C14C3F8681504
:102C3400D2F84014C3F86C15D2F84424C3F87025B4
:102C4400FFF79FFF18B13B4B3B4AC3F88C26FFF7B5
:102C540098FF18B1394BFB22C3F81825FFF791FFF1
:102C640070B14FF080414FF08053D1F8E42ED3F887
:102C7400583222F00F0203F00F031343C1F8E43E6D
:102C8400FFF77FFF20B12E4B4FF40072C3F84026AC
:102C94004FF08043D3F80024D20744BF6FF0010201
:102CA400C3F80024274AD2F8883043F47003C2F8EA
:102CB4008830BFF34F8FBFF36F8F4FF01023D3F8DB
:102CC4000022002A03DBD3F80432002B2EDA1E4B39
:102CD4000122C3F80425D3F80024002AFBD04FF0C6
:102CE40010221221C2F80012D3F80024002AFBD0CB
:102CF4004FF010231222C3F80422134BD3F80024FC
:102D0400002AFBD00022C3F80425D3F80024002AAB
:102D1400FBD0BFF34F8F0B490C4BCA6802F4E0623F
:102D24001343CB60BFF34F8F00BFFDE7084B094A45
:102D34001A6008BD005000404881030000F00040C4
:102D44000090024000ED00E000E001400400FA05BC
:102D54001C0000200090D003C0F3C75191B1420081
:102D64004FEA40704FEAD2014FEA310101F160515C
:102D7400B2F17F4F38BF704701F1605118BF41F481
:102D84000021704710F000410020704701F000421C
:102D94008B1AA3F16051B1F5801F0ADBB1F17F6F8B
:102DA40009D242EAC102C10071F1004142EB507004
:102DB40070471046704701285B4113F5001F04D883
:102DC40042F0FE4040F400007047C90041EA5070F0
:102DD40040EA020040F4800040F08040704700BFA9
:102DE40010EE100A4FEA4000B0F17F4F0CBF0120F3
:102DF4000020704710EE100A41000020B1F17F4F0F
:102E040018BF50EB0000704710EE100A00F00040AD
:102E1400704700BFB0EEC00A704700BF00B510EEA7
:102E2400100A00F003F800EE100A00BD4FF07F43D3
:102E3400B3EB400F22D9410008BF704703EA4002B8
:102E4400120E7F3A14DB172AA8BF70474FF6FF73A0
:102E5400C0F27F03D340184220EA030018BF10F0E9
:102E6400004F08BF70474FF40001D140401870472D
:102E740010F0004F0CBF00200248704718BF0248F2
:102E840070470000000080BF0000C07F00B501460D
:102E940010EE100A00F003F800EE100A00BD4FF027
:102EA4007F43B3EB400F98BF704713EA400207D04B
:102EB400120E7E3A0A6020EA530040F07C507047BC
:102EC4000A6000F00040704700B5014610EE100A99
:102ED40000F003F800EE100A00BD4FF07F43B3EB9F
:102EE400400F98BF704713EA400204BF00F000404F
:102EF400704711EB1262DCBF00F000407047FF2AFC
:102F04003CBF00EBC150704740004FEA33007047AC
:102F14007F2805D8034B185C034B5B5C1840704753
:102F2400002070478843000008440000A0F16103BA
:102F3400192B98BF20387047A0F14103192B98BF73
:102F4400203070477F2805D8034B185C034B5B5C2B
:102F54001840704700207047884300000844000070
:102F6400A0F16103192B98BF20387047A0F14103E9
:102F7400192B98BF203070477F299ABF0170012018
:102F84006FF02E0070475AB10A787F2A0AD800B130
:102F94000260002119605960501A18BF012070475F
:102FA400002070476FF02E0070470000002816DBE9
:102FB400002817DD0022B7EE000A0C4B10F0010FB9
:102FC4001CBFD3ED007A20EE270A401004330028FA
:102FD400F4DC4AB1F7EE007A87EE800A704740428B
:102FE4000122E8E7B7EE000A704700BFE0450000A1
:102FF40010B504460846A2684AB12368616803F123
:10300400010C8C4508BF00208B4208D2D054E368E1
:103014002BB121686268914201D221469847236806
:103024000133236010BD70B54C1E09D41646C5B2D9
:1030340029463046FFF7DCFF013CB4F1FF3FF7D1EE
:1030440070BD10F0100F08D108B510F4007F14BF44
:1030540030202020FFF7E7FF08BD70470028B8BFE5
:103064004042704708B5034B5B689B681B689847F0
:1030740008BD00BF2000002008B50921FFF7F2FFBA
:1030840008BD000000B5FDF7A3F9024B18445DF834
:1030940004FB00BF08000000037853B159B1014498
:1030A400034613F8012F12B18B42FAD10B46181ABA
:1030B40070470346FBE70346F9E710B584B00C46B6
:1030C400114602900022039201941A46684600F0C9
:1030D400B1F804B010BD844640EA010313F0030FB5
:1030E40018D18446202A0BD32DE9F007B1E8F8075C
:1030F400A0E8F807A2F12002202AF7D2BDE8F007E1
:10310400042A07D351F8043B40F8043BA2F104021B
:10311400042AF7D2002A05D011F8013B00F8013B3C
:10312400013AF9D1604670478446002A2DD010F048
:10313400030F04D000F8011B013A26D0F7E7C9B207
:1031440041EA012141EA0141202A12D3A2F12002DD
:103154002DE9F0030B460C460D460E460F468846F5
:103164008946A0E8FA03203AFBD2BDE8F0032032F6
:103174000BD0042A05D340F8041B043A05D0042AD2
:10318400F9D200F8011B013AFBD1604670470246B0
:1031940010F0030F16D111F0030F13D12DE9F00035
:1031A4004FF001374FF0803351F8044BA4EB07057F
:1031B40025EA04051D4002D142F8044BF4E7A1F1CD
:1031C4000401F0BC11F8013B02F8013B002BF9D1DA
:1031D400704700F1010110F0030F11D010F8012B1A
:1031E400002A23D010F0030F0AD010F8012B002A74
:1031F4001CD010F0030F03D010F8012B002A15D0B7
:103204002DE970004FF001324FF0803350F8044B39
:10321400A4EB020525EA04051D4000D1F6E7A0F160
:10322400040070BC10F8012B002AFBD1A0EB0100B4
:10323400704700002DE9F04F2DED048B8BB08346D1
:103244000592002303600D4615F8011B002900F0C8
:103254009686DFED988A4E4600F083BE4FF0000854
:1032640007E05E2866D148F4805801E048F0400841
:103274001D462B4613F8010B3028F2D81F2838D9E5
:10328400A0F12002102A34D801A151F822F000BF85
:1032940071320000F7320000F7320000D93200002A
:1032A400F7320000F7320000F7320000DF3200008E
:1032B400F7320000F7320000F7320000E532000078
:1032C400F7320000EB320000F7320000F732000062
:1032D400F132000048F08008CAE748F40048C7E724
:1032E40048F02008C4E748F01008C1E748F4007823
:1032F400BEE72A281ED1059A111D05911768002FD3
:10330400BCBF7F4248F010081878AB1C27EAE77767
:103314002E2824D00025742845D07A2843D06C2840
:1033240000F0C2804C2800F0C780682800F0D580E7
:1033340003933BE0A0F13002D2B2092A88BF0027F0
:10334400E4D8002707EB8707303800EB470713F86A
:10335400010BA0F13002D2B2092AF3D9D6E71878CA
:103364002A280AD1059A111D059115685878023347
:10337400002DD0DB48F48078CDE70133A0F1300292
:10338400D2B2092A88BF0025F4D8002505EB8505AB
:10339400303800EB450513F8010BA0F13002D2B22E
:1033A400092AF3D9E4E713F8010B0393782800F210
:1033B4008680DFE810F0F605840084008400840031
:1033C40084008400840084008400840084008400D9
:1033D40084008400840084008400840084008400C9
:1033E40084008400840084008400840084008400B9
:1033F40084008400840084008400840084008400A9
:10340400A00084008400840084008400840084007C
:103414008400840084008400840084008400840088
:103424008400840084008400840084008400840078
:103434008400840084008400840084008400840068
:10344400BE01DB01E0018400840084008400840068
:103454008400840084008400840084008400840048
:1034640084008400840019018400840084008400A2
:10347400840084008400840084008400A6004E013B
:10348400C001DD01E20184004E0184008400840057
:103494008400B6003C01000184008400CB00840059
:1034A4004701840084001B0113F8010B039348F0C7
:1034B40001087BE70000C84248F001080393B04BC1
:1034C4001C68002C00F0498505AB019300953B4630
:1034D40042465946A04700F040BD1878682804D0F9
:1034E4000133039348F0040860E748F008089A1C85
:1034F400039258785AE725215846FFF779FD00F0E2
:103504002CBD059B1A1D05921C78013F5A4639466D
:103514004046FFF796FD21465846FFF769FDC14630
:1035240039E018F0080F08D0DBF80020059B191DBE
:1035340005911B681A7000F010BD059B1A1D0592B9
:103544001B68DBF800201A6000F007BD059B1A1DFC
:1035540005921B688B4C002B18BF1C4628F400797D
:1035640018F4807F22D029462046FFF795FD0546B2
:103574007F1B5A4639464846FFF763FD6E1E55B118
:1035840026462C4416F8011B5846FFF731FDB44279
:10359400F8D14FF0FF3619F0100F00F0DE845A46D0
:1035A40039462020FFF73FFD00F0D7BC2046FFF747
:1035B40010FE0546DCE7059B1A1D05921B6818F0F2
:1035C400800F0CBF0026232648F4807808251A466D
:1035D400002B00F0A28406AB002408F40050DFF8AE
:1035E400A8C1AE4600F05FBC48F4005818F0800F44
:1035F4001BD043F2780643F25803782818BF1E46BE
:1036040018F4807F01D028F4007818F4804F32D069
:10361400059B1A1D05921B6818F0040F1FD01BB2DE
:10362400002B20DA5B422D262DE00026E8E718F077
:10363400800F0CBF0026302618F4807FE5D028F4D4
:103644000078E2E718F4807F07D028F40078002699
:10365400DBE748F480480026D7E70026D5E718F0D2
:10366400080FDDD0DBB218F0200F60D118F0400F46
:1036740018BF202607E0059B1A1D05921B6818F049
:10368400040F4FD09BB218F4807F00F0E18328F43C
:1036940000785838202800F22D8401A252F820F036
:1036A400D3350000F93E0000F93E0000F93E000069
:1036B400F93E0000F93E0000F93E0000F93E00002A
:1036C400F93E0000F93E0000F93E0000F93E00001A
:1036D4007B3E0000F93E0000F93E0000F93E000088
:1036E400F93E00007B3E0000F93E0000F93E000078
:1036F400F93E0000F93E0000F93E0000593E00008A
:10370400D3350000F93E0000F93E0000F93E000008
:10371400F93E00007B3E0000F93E0000F93E000047
:10372400D335000018F0080FADD0DBB2ABE72B2681
:10373400A9E748F4005848F48068059B073323F050
:10374400070303F108020592D3E90001FFF71EFB0A
:1037540008EE100A18F4807F18D0C5B908F4406543
:10376400B5F5406F14BF0025012510E048F400585A
:1037740048F40068E1E748F4005848F44068DCE79E
:103784007C0B0020F8450000CC4500000625B0EE77
:10379400480AFFF725FB002840F0BC80B0EE480A39
:1037A400FFF728FB8246002840F0CD80B0EE480A9F
:1037B400FFF72AFB002840F0CF8018EE103A08EEFD
:1037C400103A09A800EE103AFFF760FB099B03EBDF
:1037D40043039B4A82FB0312DB17C3EBA203099347
:1037E400B5EE408AF1EE10FA40F0C08008F440646F
:1037F400B4F5806F0AD0B4F5406F40F0E581099BC1
:10380400AB4203DA13F1040F80F2DE8109984042DF
:10381400FFF7CCFB28EE008A8DED048AB5EE408AD2
:10382400F1EE10FA36D0B0EE480AFFF7D9FA0028C4
:1038340040F0B280F2EE047AB4EEE78AF1EE10FAC8
:103844000FDB099B0133F2EE047A1A4688EE278ACD
:103854000133B4EEE78AF1EE10FAF6DA8DED048A5C
:103864000992DDED047AB7EE007AF4EEC77AF1EE50
:1038740010FA0FD5099B013BF2EE046A1A4667EE73
:10388400A67A013BF4EEC77AF1EE10FAF6D4CDED48
:10389400047A099225B1B4F5406F08BF05F1FF35EC
:1038A4006842FFF783FBF6EE007A60EE277A9DED1F
:1038B400047A77EE877AB2EE047AF4EEC77AF1EE00
:1038C40010FA80F28280B0EE678A002D00F09280B8
:1038D40008F40863B3F5006F7FD028F400696B1D0A
:1038E400FF1A013F18F4805F00F06B81099A554B71
:1038F40083FB0213A3EBE27303EB4303D31A0233F8
:10390400042B00F25C81DFE813F0AD005201970054
:10391400AD005201B5EEC08AF1EE10FA0CD418F4E1
:10392400005F494C494B08BF1C4618F0200F08BFE4
:10393400013428F4807811E618F4005F444C454BB8
:1039440008BF1C46F5E718F4005F434C434B08BF1F
:103954001C4628F4807801E648F06008F1EE487AC5
:1039640017EE903A2BE7099B01330993099801302C
:10397400FFF71CFBB4EEC08AF1EE10FAF3DC02E0B0
:10398400099B013B09930998FFF710FBB4EEC08A29
:10399400F1EE10FAF4D429E7B5EEC08AF1EE10FA8C
:1039A4000CD418F4005F284C284B08BF1C4618F0B0
:1039B400200F08BF013428F48078CFE518F4005FA5
:1039C400234C244B08BF1C46F5E7099B013309939C
:1039D400B2EE047A87EE878A77E7092DA8BF092516
:1039E4002846FFF7E3FA60EE087AFCEEE77A17EE72
:1039F400903A43B928F40069053F18F080053FF474
:103A040071AF55466DE7164AA2FB0312D20802EBCA
:103A14008202B3EB420F7FF460AF1149A1FB032391
:103A2400DB08013DE6D0A1FB0302D20802EB8202CF
:103A3400B3EB420FF2D050E74FF0010A1BE000BF96
:103A440067666666565555551046000018460000D0
:103A540000460000084600002046000024460000FE
:103A6400CDCCCCCCF2EE047A27EE888A013A0992C6
:103A7400013F4FF0020A25EAE57518F0600F18BF00
:103A840007F1FF370998FFF7E9FA6328C8BF07F180
:103A9400FF37F0EE487ABCEEC87A17EE104AB8EE5B
:103AA400478A37EEC88A27EAE77619F4047F00F0DC
:103AB400248119F0200F00F02C8119F0400F14BF5D
:103AC4002D212B215846FFF793FA19F0100F00F01F
:103AD40029810AF10053013BC44A02EBC3080027C1
:103AE4002B4655469A46013DD8F80030D8F80420B4
:103AF400A8F108089C4277EB0201C0F01F81302135
:103B04000131C9B2E41A9C4277EB0200F8D258465C
:103B1400FFF76EFA002DE6D1554619F4006440F023
:103B24000F81002D40F01B8119F0800F40F03C8282
:103B340019F4806F2FD019F4005F14BF452165215B
:103B44005846FFF755FA099B002BC0F263812B21DD
:103B54005846FFF74DFA0999632900F363810999DF
:103B6400A34C84FB0132C917C1EBA2013031C9B2A5
:103B74005846FFF73DFA099B84FB0324D917C1EB90
:103B8400A40101EB8101A3EB410303F13001C9B2AC
:103B94005846FFF72DFA002E00F0DF812024013E65
:103BA40021465846FFF724FA002EF8D1D5E128EE35
:103BB400888A023A0992023F4FF0030A5BE7B24651
:103BC40059E74FF0010A58E718F4806F29D0099B90
:103BD4000E2B25DC0133EC1A092CA8BF092418F09C
:103BE400800F01D025461CE0AB426AD0F6EE009A65
:103BF400B2EE049A2046FFF7D9F928EE000A30EE17
:103C0400290AFFF70BF9F0EE490A00F009FAB5EEBC
:103C1400400AF1EE10FA56D1013CEBD1254600E002
:103C2400554628F48069099B6842A3F10802824240
:103C3400C8BFA3F10900FFF7B9F94FF0FF30FFF750
:103C440043F938EE008AB0EE489A09980130FFF73C
:103C5400ADF9B4EEC08AF1EE10FA02DB099B013330
:103C640009930998002840DB09282EDCFCEEC97A68
:103C740017EE904AB8EE678A39EE488A0023099312
:103C840000202646092C35D95A4B4FF0010A0AF177
:103C9400010A53F8081F5A688E4270EB0202F6D2EA
:103CA40005EB0A03099A1344FF1A08F080032B4317
:103CB40018BF07F1FF3718F0600F18BF07F1FF377F
:103CC400F1E62546ADE72546ABE7A0F109030993E4
:103CD400C0F10900FFF76AF929EE009AFCEEC97AEF
:103CE40017EE904A08EE10AACAE7002409944FF090
:103CF400010AD5E74FF0010AD2E7002F7FF7D9AECA
:103D04002027013E39465846FFF772F9002EF8D1B4
:103D1400CFE619F0400F3FF4D8AE20215846FFF704
:103D240067F9D2E6002E3FF4D4AE3027013E39467F
:103D34005846FFF75DF9002EF8D1CAE63021E6E6D1
:103D4400099B002B7FF7EDAE3027013B09933946E1
:103D54005846FFF74DF9099B002BF6DCE1E62E21CE
:103D64005846FFF745F92F46092DA8BF092727EA2A
:103D7400E777ED1BACB10998381AFFF717F920EE75
:103D8400088AFCEEC87A17EE904ABFB3DFF85CA04D
:103D940007F10057013F0AEBC7080027CDF8109040
:103DA40015E03846FFF702F920EE088AFCEEC87ADF
:103DB40017EE904AE9E70131C9B2E41A9C4277EB65
:103DC4000200F8D25846FFF713F9D14514D0D8F8B9
:103DD4000030D8F80420C146A8F108089C4277EBCB
:103DE400020101D33021E6E73021EBE72846000049
:103DF4006766666630460000DDF81090002D3FF4DB
:103E040097AE3024013D21465846FFF7F1F8002DC6
:103E1400F8D18DE62D215846FFF7EAF8099B5B425D
:103E2400099398E6644C84FB0132C917C1EB621113
:103E34003031C9B25846FFF7DBF8099B84FB0321F4
:103E4400DA17C2EB6112642101FB1233099386E68F
:103E540001251EE41A460024002B4CD006A9002498
:103E640003F00703303301F8013B0134D208134651
:103E7400002AF5D13FE019460024002B3BD0002452
:103E840008F4004E4FF02C09DFF834C17346AE46F7
:103E94001D4621E002F00F01484D695C03F8011B47
:103EA4000134120906D00028F4D002F00F011CF8E6
:103EB4000110F3E775461EE00AAB1819ACFB01329A
:103EC400D20802EB8203A1EB4303303300F8103C29
:103ED400013409290CD91146002DEDD004F0030357
:103EE400032BE9D10AAB234403F8109C0134E3E724
:103EF400754600E000242D1B25EAE5757F1B3F1B5A
:103F0400FF2E0CD9023FC6F307215846FFF770F87D
:103F1400F1B25846FFF76CF803E00024EBE7002EFB
:103F240048D15A4639464046FFF78BF85A46294647
:103F34003020FFF778F8661E0CD406AE013C3444FA
:103F440021785846FFF754F8B44204F1FF34F7D10E
:103F54004FF0FF3618F0100F0BD1039D15F8011B1D
:103F640069B125293FF47AA95846FFF741F803952A
:103F7400F3E75A4639462020FFF755F8EDE7DBF81A
:103F840008303BB1DBF80020DBF804108A423CBF68
:103F940000219954DBF800000BB0BDEC048BBDE8A4
:103FA400F08F4FF0FF30F7E72E215846FFF720F847
:103FB4002F46DEE6013FABE71F85EB51BC45000011
:103FC400CDCCCCCC9FED147AB4EE470AF1EE10FAC6
:103FD400F0EE407A12D010EE102AC2F3C7537F3BA2
:103FE40011D4162B12DC0D4921FA03F322EA030241
:103FF40007EE102A026030EE470A7047B0EE470A17
:1040040080ED007A704780ED007A7047B0EE470A81
:10401400C0ED007A704700BF00000000FFFF7F0082
:1040240000B52DED028BF5EE400AF1EE10FA83B0E7
:104034004BD0B0EE608AF0EE408AFEF7DBFE30B182
:10404400B0EE680A03B0BDEC028B5DF804FBB0EE81
:10405400480AFEF7CFFE002843D1F5EE408AF1EE80
:1040640010FAEDD0B0EE680AFEF7BAFE00283FD190
:10407400B0EE480AFEF7B4FE0028E1D1B0EE480ADB
:10408400FEF7C8FEB0EE408A88EE880A01A8FFF762
:1040940099FFDDED017AF5EEC08AB0EE680AF1EE23
:1040A40010FAA8EE670AB1EE487A24DDB4EEC08AAD
:1040B400F1EE10FA98BF30EE480AB5EEC00AF1EE00
:1040C40010FABFD530EE080ABCE7FEF7DBFF114B50
:1040D4009FED110A1B68036003B0BDEC028B5DF811
:1040E40004FBB0EE480A03B0BDEC028B5DF804FBA0
:1040F4009FED090AA6E7B4EEC70AF1EE10FA98BFDD
:1041040030EE080AB5EEC00AF1EE10FA9ADD30EE90
:0C411400480A97E7DC4500000000C07F6F
:10412000C642000000000000CA420000000000007B
:10413000D842000000000000DD4200000000000046
:08414000BA4100000000030376
:104148008C4100000000000098410000140000208D
:104158007800002040010020480100208000002055
:04416800180000003B
:10416C00FFFFFFFFFFFFFFFFFFFFFFFFFFFFFFFF53
:10417C0000000000000000000000D6010601000055
:10418C00FD04000061050000AD040000756172744F
:10419C005F6C6F675F6261636B656E640042616345
:1041AC006B656E647320666C757368656400617012
:1041BC00700000006C0500207F000000EC05002062
:1041CC001B5B313B33316D0025734C6F677320647F
:1041DC00726F70706564202825642925730D0A00A0
:1041EC001B5B306D002573003C25733E2025733A14
:1041FC002000202530327800202020007C00256310
:10420C00001B5B313B33306D001B5B313B33326D3C
:10421C00001B5B313B33336D001B5B313B33346D27
:10422C00001B5B313B33356D001B5B313B33366D13
:10423C00001B5B313B33376D007761726E696E67C3
:10424C0000696E666F00646562756700EC41000082
:10425C000D420000CC410000154200001D42000040
:10426C00254200002D420000354200003D42000076
:10427C000000000096420000454200004D42000044
:10428C0052420000466174616C206572726F72005C
:10429C0053797374656D20726573657400303132B7
:1042AC0033343536373839414243444546000000F3
:1042BC00000000000338FDD870475052530054578B
:1042CC00494D0000011800001118000055415254CE
:1042DC0000554152544500545749207363616E6E2A
:1042EC00657220737461727465642E0D0A00566FCA
:1042FC006C746167653A20202566210A0D005265B1
:10430C00706361703A20202566210A0D0052657099
:10431C00736F633A20202566210A0D005474653AA8
:10432C0020202566210A0D0054656D703A20202549
:10433C0064210A0D000000000000000000000000D5
:10434C00000000000338FDD870470000000000009A
:10435C000030004000000000010000005465726D48
:10436C00696E616C005254540053454747455200E6
:10437C0043000000504F53495800000020202020DB
:10438C0020202020206828282828202020202020B9
:10439C002020202020202020202020204810101019
:1043AC001010101010101010101010108484848431
:1043BC0084848484848410101010101010818181E6
:1043CC008181810101010101010101010101010151
:1043DC0001010101010101101010101010828282E4
:1043EC008282820202020202020202020202020221
:1043FC000202020202020210101010200007032019
:10440C000417020108571040800000007C43000094
:10441C00804400009445000053756E004D6F6E0093
:10442C0054756500576564005468750046726900E0
:10443C0053617400000000004A616E004665620022
:10444C004D617200417072004D6179004A756E00C9
:10445C004A756C0041756700536570004F637400BA
:10446C004E6F76004465630000000000414D005023
:10447C004D000000B8450000B4450000B4450000F4
:10448C00B4450000B4450000B4450000B44500003C
:10449C00B4450000B4450000B4450000FFFFFFFF29
:1044AC00FFFFFFFFFFFFFFFFFFFF0000F4440000D2
:1044BC0024440000304500004444000078440000CF
:1044CC00D844000088450000E4440000256D2F25E9
:1044DC00642F2579000000002561202562202565C8
:1044EC00202554202559000053756E646179004DC8
:1044FC006F6E6461790054756573646179005765FA
:10450C00646E657364617900546875727364617963
:10451C0000467269646179005361747572646179E3
:10452C00000000004A616E75617279004665627226
:10453C0075617279004D6172636800417072696CCB
:10454C00004D6179004A756E65004A756C790041C1
:10455C0075677573740053657074656D6265720070
:10456C004F63746F626572004E6F76656D62657233
:10457C0000446563656D62657200000025483A254C
:10458C004D3A255300000000152F0000312F00007C
:10459C003D2F0000492F0000652F0000712F0000F7
:1045AC007D2F00008B2F0000000000002E0000006B
:1045BC00303132333435363738396162636465668D
:1045CC00303132333435363738394142434445463D
:1045DC0021000000000020410000C84200401C46A1
:1045EC0020BCBE4CCA1B0E5AAEC59D74286E756C91
:1045FC006C2900002D494E46000000002D696E66A6
:10460C00000000002B494E46000000002B696E662E
:10461C00000000004E414E006E616E000100000073
:10462C00000000000A000000000000006400000010
:10463C0000000000E803000000000000102700004C
:10464C0000000000A08601000000000040420F00A6
:10465C0000000000809698000000000000E1F505C5
:10466C000000000000CA9A3B0000000000E40B545C
:10467C000200000000E87648170000000010A5D4E6
:10468C00E800000000A0724E1809000000407A10EB
:10469C00F35A00000080C6A47E8D03000000C16F99
:1046AC00F286230000008A5D78456301000064A750
:0C46BC00B3B6E00D0000E8890423C78AB3
:1046C8000000000000200040000000000020004022
:1046D8000000000000000000FF0000000090D00370
:1046E8001844000018440000184400001844000052
:0446F8001844000062
:040000030000037581
:00000001FF
